BL51 BANKED LINKER/LOCATER V6.22                                                        05/28/2022  22:00:09  PAGE 1


BL51 BANKED LINKER/LOCATER V6.22, INVOKED BY:
H:\KEIL\C51\BIN\BL51.EXE ..\obj\main.obj, ..\obj\LDChip.obj, ..\obj\Reg_RW.obj, ..\obj\usart.obj TO ..\obj\V07A PRINT (.
>> \V07A.m51) RAMSIZE (256)


MEMORY MODEL: SMALL


INPUT MODULES INCLUDED:
  ..\obj\main.obj (MAIN)
  ..\obj\LDChip.obj (LDCHIP)
  ..\obj\Reg_RW.obj (REG_RW)
  ..\obj\usart.obj (USART)
  H:\KEIL\C51\LIB\C51S.LIB (?C_STARTUP)
  H:\KEIL\C51\LIB\C51S.LIB (?C?CLDPTR)
  H:\KEIL\C51\LIB\C51S.LIB (?C?SLDIV)
  H:\KEIL\C51\LIB\C51S.LIB (?C?LNEG)
  H:\KEIL\C51\LIB\C51S.LIB (?C?LLDIIDATA)
  H:\KEIL\C51\LIB\C51S.LIB (?C?CCASE)
  H:\KEIL\C51\LIB\C51S.LIB (?C_INIT)
  H:\KEIL\C51\LIB\C51S.LIB (?C?ULDIV)


LINK MAP OF MODULE:  ..\obj\V07A (MAIN)


            TYPE    BASE      LENGTH    RELOCATION   SEGMENT NAME
            -----------------------------------------------------

            * * * * * * *   D A T A   M E M O R Y   * * * * * * *
            REG     0000H     0008H     ABSOLUTE     "REG BANK 0"
            DATA    0008H     0011H     UNIT         _DATA_GROUP_
            DATA    0019H     0002H     UNIT         ?DT?USART
            DATA    001BH     0001H     UNIT         ?DT?MAIN
            IDATA   001CH     0001H     UNIT         ?ID?MAIN
            IDATA   001DH     0001H     UNIT         ?ID?LDCHIP
            IDATA   001EH     0001H     UNIT         _IDATA_GROUP_
            IDATA   001FH     0001H     UNIT         ?STACK

            * * * * * * *   C O D E   M E M O R Y   * * * * * * *
            CODE    0000H     0003H     ABSOLUTE     
            CODE    0003H     0003H     ABSOLUTE     
            CODE    0006H     026CH     UNIT         ?CO?LDCHIP
            CODE    0272H     013BH     UNIT         ?C?LIB_CODE
            CODE    03ADH     009FH     UNIT         ?PR?_USER_HANDLE?MAIN
            CODE    044CH     009DH     UNIT         ?PR?LD_ASRADDFIXED?LDCHIP
            CODE    04E9H     009CH     UNIT         ?PR?LD_INIT_COMMON?LDCHIP
            CODE    0585H     0095H     UNIT         ?PR?PROCESSINT0?LDCHIP
            CODE    061AH     0093H     UNIT         ?PR?LD_ASRRUN?LDCHIP
            CODE    06ADH     008CH     UNIT         ?C_C51STARTUP
            CODE    0739H     005FH     UNIT         ?PR?LD_INIT_ASR?LDCHIP
            CODE    0798H     004FH     UNIT         ?PR?RUNASR?LDCHIP
            CODE    07E7H     0049H     UNIT         ?PR?MAIN?MAIN
            CODE    0830H     0044H     UNIT         ?C?LDIV
            CODE    0874H     0041H     UNIT         ?PR?LD_RESET?LDCHIP
            CODE    08B5H     003BH     UNIT         ?PR?EXTINT0HANDLER?MAIN
            CODE    08F0H     0029H     UNIT         ?PR?LD_CHECK_ASRBUSYFLAG_B2?LDCHIP
            CODE    0919H     0028H     UNIT         ?CO?MAIN
BL51 BANKED LINKER/LOCATER V6.22                                                      05/28/2022  22:00:09  PAGE 2


            CODE    0941H     0027H     UNIT         ?PR?UARTINI?USART
            CODE    0968H     0025H     UNIT         ?PR?_PRINTCOM?USART
            CODE    098DH     0024H     UNIT         ?PR?_DELAY?MAIN
            CODE    09B1H     001BH     UNIT         ?PR?MCU_INIT?MAIN
            CODE    09CCH     0012H     UNIT         ?PR?LED_TEST?MAIN
            CODE    09DEH     000EH     UNIT         ?PR?_UARTSENDBYTE?USART
            CODE    09ECH     000DH     UNIT         ?PR?DELAY200MS?MAIN
            CODE    09F9H     000BH     UNIT         ?PR?DELAY200US?MAIN
            CODE    0A04H     000BH     UNIT         ?C_INITSEG
            CODE    0A0FH     000BH     UNIT         ?PR?_LD_WRITEREG?REG_RW
            CODE    0A1AH     000BH     UNIT         ?PR?_LD_READREG?REG_RW
            CODE    0A25H     0006H     UNIT         ?PR?LD_GETRESULT?LDCHIP
            CODE    0A2BH     0003H     UNIT         ?PR?LD_ASRSTART?LDCHIP



OVERLAY MAP OF MODULE:   ..\obj\V07A (MAIN)


SEGMENT                                      DATA_GROUP          IDATA_GROUP
  +--> CALLED SEGMENT                      START    LENGTH     START    LENGTH
------------------------------------------------------------------------------
?PR?EXTINT0HANDLER?MAIN                    -----    -----      -----    -----
  +--> ?PR?PROCESSINT0?LDCHIP

?PR?PROCESSINT0?LDCHIP                     0008H    0001H      -----    -----
  +--> ?PR?_LD_READREG?REG_RW
  +--> ?PR?_LD_WRITEREG?REG_RW

*** NEW ROOT ***************************************************

?C_C51STARTUP                              -----    -----      -----    -----
  +--> ?PR?MAIN?MAIN
  +--> ?C_INITSEG

?PR?MAIN?MAIN                              0009H    0001H      001EH    0001H
  +--> ?PR?LED_TEST?MAIN
  +--> ?PR?MCU_INIT?MAIN
  +--> ?PR?LD_RESET?LDCHIP
  +--> ?PR?UARTINI?USART
  +--> ?PR?RUNASR?LDCHIP
  +--> ?PR?LD_GETRESULT?LDCHIP
  +--> ?PR?_USER_HANDLE?MAIN

?PR?LED_TEST?MAIN                          -----    -----      -----    -----
  +--> ?PR?DELAY200MS?MAIN

?PR?LD_RESET?LDCHIP                        -----    -----      -----    -----
  +--> ?PR?_DELAY?MAIN

?PR?_DELAY?MAIN                            0011H    0008H      -----    -----
  +--> ?PR?DELAY200US?MAIN

?PR?RUNASR?LDCHIP                          000AH    0002H      -----    -----
  +--> ?PR?LD_ASRSTART?LDCHIP
  +--> ?PR?_DELAY?MAIN
  +--> ?PR?LD_ASRADDFIXED?LDCHIP
BL51 BANKED LINKER/LOCATER V6.22                                                      05/28/2022  22:00:09  PAGE 3


  +--> ?PR?LD_ASRRUN?LDCHIP
  +--> ?PR?LD_RESET?LDCHIP

?PR?LD_ASRSTART?LDCHIP                     -----    -----      -----    -----
  +--> ?PR?LD_INIT_ASR?LDCHIP

?PR?LD_INIT_ASR?LDCHIP                     -----    -----      -----    -----
  +--> ?PR?LD_INIT_COMMON?LDCHIP
  +--> ?PR?_LD_WRITEREG?REG_RW
  +--> ?PR?_DELAY?MAIN

?PR?LD_INIT_COMMON?LDCHIP                  -----    -----      -----    -----
  +--> ?PR?_LD_READREG?REG_RW
  +--> ?PR?_LD_WRITEREG?REG_RW
  +--> ?PR?_DELAY?MAIN

?PR?LD_ASRADDFIXED?LDCHIP                  000CH    0003H      -----    -----
  +--> ?PR?LD_CHECK_ASRBUSYFLAG_B2?LDCHIP
  +--> ?CO?LDCHIP
  +--> ?PR?_LD_WRITEREG?REG_RW
  +--> ?PR?_DELAY?MAIN

?PR?LD_CHECK_ASRBUSYFLAG_B2?LDCHIP         000FH    0002H      -----    -----
  +--> ?PR?_LD_READREG?REG_RW
  +--> ?PR?_DELAY?MAIN

?PR?LD_ASRRUN?LDCHIP                       -----    -----      -----    -----
  +--> ?PR?_LD_WRITEREG?REG_RW
  +--> ?PR?_DELAY?MAIN
  +--> ?PR?LD_CHECK_ASRBUSYFLAG_B2?LDCHIP

?PR?LD_GETRESULT?LDCHIP                    -----    -----      -----    -----
  +--> ?PR?_LD_READREG?REG_RW

?PR?_USER_HANDLE?MAIN                      000AH    0001H      -----    -----
  +--> ?PR?_UARTSENDBYTE?USART
  +--> ?PR?DELAY200US?MAIN
  +--> ?CO?MAIN
  +--> ?PR?_PRINTCOM?USART

?PR?_PRINTCOM?USART                        000BH    0003H      -----    -----
  +--> ?PR?_UARTSENDBYTE?USART



SYMBOL TABLE OF MODULE:  ..\obj\V07A (MAIN)

  VALUE           TYPE          NAME
  ----------------------------------

  -------         MODULE        MAIN
  C:0000H         SYMBOL        _ICE_DUMMY_
  D:0080H         PUBLIC        P0
  D:0090H         PUBLIC        P1
  D:00A0H         PUBLIC        P2
  D:00B0H         PUBLIC        P3
  D:00C0H         PUBLIC        P4
BL51 BANKED LINKER/LOCATER V6.22                                                      05/28/2022  22:00:09  PAGE 4


  B:00A8H.7       PUBLIC        EA
  D:00A8H         PUBLIC        IE
  C:098DH         PUBLIC        _delay
  B:00C0H.3       PUBLIC        LD_MODE
  D:00B8H         PUBLIC        IP
  I:001CH         PUBLIC        nAsrStatus
  D:00D8H         PUBLIC        CCON
  C:07E7H         PUBLIC        main
  D:0098H         PUBLIC        SCON
  D:0088H         PUBLIC        TCON
  C:09CCH         PUBLIC        Led_test
  B:0088H.1       PUBLIC        IE0
  B:00A8H.0       PUBLIC        EX0
  C:08B5H         PUBLIC        ExtInt0Handler
  B:00C0H.2       PUBLIC        LED
  C:09ECH         PUBLIC        Delay200ms
  C:09F9H         PUBLIC        Delay200us
  C:03ADH         PUBLIC        _User_handle
  D:001BH         PUBLIC        G0_flag
  D:00D0H         PUBLIC        PSW
  C:09B1H         PUBLIC        MCU_init
  -------         PROC          MAIN
  -------         DO            
  I:001EH         SYMBOL        nAsrRes
  D:0009H         SYMBOL        i
  -------         ENDDO         
  C:07E7H         LINE#         37
  C:07E7H         LINE#         38
  C:07E7H         LINE#         40
  C:07EAH         LINE#         42
  C:07EDH         LINE#         43
  C:07F0H         LINE#         44
  C:07F3H         LINE#         45
  C:07F6H         LINE#         46
  C:07F8H         LINE#         59
  C:07F8H         LINE#         60
  C:07F8H         LINE#         61
  C:080AH         LINE#         62
  C:080AH         LINE#         63
  C:080AH         LINE#         64
  C:080AH         LINE#         65
  C:080AH         LINE#         66
  C:080AH         LINE#         67
  C:080AH         LINE#         68
  C:080EH         LINE#         69
  C:0814H         LINE#         70
  C:0814H         LINE#         71
  C:0818H         LINE#         72
  C:0818H         LINE#         73
  C:081AH         LINE#         74
  C:081AH         LINE#         75
  C:081AH         LINE#         76
  C:081AH         LINE#         77
  C:0821H         LINE#         78
  C:0824H         LINE#         79
  C:0828H         LINE#         80
  C:082AH         LINE#         81
BL51 BANKED LINKER/LOCATER V6.22                                                      05/28/2022  22:00:09  PAGE 5


  C:082AH         LINE#         82
  C:082AH         LINE#         83
  C:082AH         LINE#         84
  C:082AH         LINE#         85
  C:082EH         LINE#         86
  -------         ENDPROC       MAIN
  -------         PROC          LED_TEST
  C:09CCH         LINE#         99
  C:09CCH         LINE#         100
  C:09CCH         LINE#         101
  C:09CEH         LINE#         102
  C:09D1H         LINE#         103
  C:09D3H         LINE#         104
  C:09D6H         LINE#         105
  C:09D8H         LINE#         106
  C:09DBH         LINE#         107
  C:09DDH         LINE#         108
  -------         ENDPROC       LED_TEST
  -------         PROC          MCU_INIT
  C:09B1H         LINE#         117
  C:09B1H         LINE#         118
  C:09B1H         LINE#         119
  C:09B4H         LINE#         120
  C:09B7H         LINE#         121
  C:09BAH         LINE#         122
  C:09BDH         LINE#         123
  C:09C0H         LINE#         124
  C:09C3H         LINE#         127
  C:09C5H         LINE#         128
  C:09C7H         LINE#         129
  C:09C9H         LINE#         130
  C:09CBH         LINE#         131
  -------         ENDPROC       MCU_INIT
  -------         PROC          DELAY200US
  -------         DO            
  D:0007H         SYMBOL        i
  D:0006H         SYMBOL        j
  -------         ENDDO         
  C:09F9H         LINE#         140
  C:09F9H         LINE#         141
  C:09F9H         LINE#         143
  C:09FAH         LINE#         144
  C:09FBH         LINE#         145
  C:09FDH         LINE#         146
  C:09FFH         LINE#         148
  C:09FFH         LINE#         149
  C:0A01H         LINE#         150
  C:0A03H         LINE#         151
  -------         ENDPROC       DELAY200US
  -------         PROC          _DELAY
  D:0011H         SYMBOL        uldata
  -------         DO            
  D:0015H         SYMBOL        j
  D:0017H         SYMBOL        g
  -------         ENDDO         
  C:098DH         LINE#         153
  C:0995H         LINE#         154
BL51 BANKED LINKER/LOCATER V6.22                                                      05/28/2022  22:00:09  PAGE 6


  C:0995H         LINE#         155
  C:099AH         LINE#         156
  C:099EH         LINE#         157
  C:09ABH         LINE#         158
  C:09B0H         LINE#         159
  -------         ENDPROC       _DELAY
  -------         PROC          DELAY200MS
  -------         DO            
  D:0007H         SYMBOL        i
  D:0006H         SYMBOL        j
  D:0005H         SYMBOL        k
  -------         ENDDO         
  C:09ECH         LINE#         161
  C:09ECH         LINE#         162
  C:09ECH         LINE#         165
  C:09EEH         LINE#         166
  C:09F0H         LINE#         167
  C:09F2H         LINE#         169
  C:09F2H         LINE#         171
  C:09F2H         LINE#         172
  C:09F4H         LINE#         173
  C:09F6H         LINE#         174
  C:09F8H         LINE#         175
  -------         ENDPROC       DELAY200MS
  -------         PROC          EXTINT0HANDLER
  C:08B5H         LINE#         185
  C:08D2H         LINE#         187
  C:08D5H         LINE#         188
  -------         ENDPROC       EXTINT0HANDLER
  -------         PROC          _USER_HANDLE
  D:000AH         SYMBOL        dat
  C:03ADH         LINE#         196
  C:03AFH         LINE#         197
  C:03AFH         LINE#         199
  C:03B3H         LINE#         200
  C:03B3H         LINE#         201
  C:03B6H         LINE#         202
  C:03B8H         LINE#         204
  C:03BDH         LINE#         205
  C:03C0H         LINE#         206
  C:03C3H         LINE#         207
  C:03C6H         LINE#         208
  C:03C7H         LINE#         209
  C:03CDH         LINE#         210
  C:03CDH         LINE#         211
  C:03CFH         LINE#         212
  C:03FFH         LINE#         213
  C:03FFH         LINE#         214
  C:03FFH         LINE#         216
  C:0401H         LINE#         217
  C:0403H         LINE#         218
  C:0403H         LINE#         220
  C:0405H         LINE#         221
  C:0407H         LINE#         222
  C:0407H         LINE#         224
  C:0409H         LINE#         225
  C:040BH         LINE#         226
BL51 BANKED LINKER/LOCATER V6.22                                                      05/28/2022  22:00:09  PAGE 7


  C:040BH         LINE#         228
  C:040DH         LINE#         229
  C:040FH         LINE#         230
  C:040FH         LINE#         232
  C:0411H         LINE#         233
  C:0413H         LINE#         234
  C:0413H         LINE#         236
  C:0415H         LINE#         237
  C:0417H         LINE#         238
  C:0417H         LINE#         240
  C:0419H         LINE#         241
  C:041BH         LINE#         242
  C:041BH         LINE#         244
  C:041DH         LINE#         245
  C:041FH         LINE#         246
  C:041FH         LINE#         248
  C:0421H         LINE#         249
  C:0423H         LINE#         250
  C:0423H         LINE#         252
  C:0425H         LINE#         253
  C:0427H         LINE#         254
  C:0427H         LINE#         256
  C:0429H         LINE#         257
  C:042BH         LINE#         258
  C:042BH         LINE#         260
  C:042DH         LINE#         261
  C:042FH         LINE#         262
  C:042FH         LINE#         263
  C:0432H         LINE#         265
  C:0435H         LINE#         267
  C:043AH         LINE#         269
  C:043AH         LINE#         270
  C:0442H         LINE#         271
  C:0442H         LINE#         272
  C:0442H         LINE#         274
  C:0442H         LINE#         275
  C:044BH         LINE#         276
  C:044BH         LINE#         277
  -------         ENDPROC       _USER_HANDLE
  -------         ENDMOD        MAIN

  -------         MODULE        LDCHIP
  C:0000H         SYMBOL        _ICE_DUMMY_
  D:00A0H         PUBLIC        P2
  D:00B0H         PUBLIC        P3
  D:00C0H         PUBLIC        P4
  D:00A8H         PUBLIC        IE
  C:0A25H         PUBLIC        LD_GetResult
  C:044CH         PUBLIC        LD_AsrAddFixed
  D:00B8H         PUBLIC        IP
  I:001DH         PUBLIC        ucRegVal
  C:0798H         PUBLIC        RunASR
  D:00D8H         PUBLIC        CCON
  C:0A2BH         PUBLIC        LD_AsrStart
  C:08F0H         PUBLIC        LD_Check_ASRBusyFlag_b2
  D:0098H         PUBLIC        SCON
  D:0088H         PUBLIC        TCON
BL51 BANKED LINKER/LOCATER V6.22                                                      05/28/2022  22:00:09  PAGE 8


  B:00B0H.5       PUBLIC        RSTB
  C:0585H         PUBLIC        ProcessInt0
  B:00A8H.0       PUBLIC        EX0
  C:0739H         PUBLIC        LD_Init_ASR
  C:061AH         PUBLIC        LD_AsrRun
  C:04E9H         PUBLIC        LD_Init_Common
  B:00A0H.1       PUBLIC        CSB
  C:0874H         PUBLIC        LD_Reset
  D:00D0H         PUBLIC        PSW
  -------         PROC          LD_RESET
  C:0874H         LINE#         24
  C:0874H         LINE#         25
  C:0874H         LINE#         26
  C:0876H         LINE#         27
  C:0881H         LINE#         28
  C:0883H         LINE#         29
  C:088EH         LINE#         30
  C:0890H         LINE#         32
  C:089BH         LINE#         33
  C:089DH         LINE#         34
  C:08A8H         LINE#         35
  C:08AAH         LINE#         36
  -------         ENDPROC       LD_RESET
  -------         PROC          LD_INIT_COMMON
  C:04E9H         LINE#         45
  C:04E9H         LINE#         46
  C:04E9H         LINE#         47
  C:04EEH         LINE#         48
  C:04F5H         LINE#         49
  C:0500H         LINE#         50
  C:0505H         LINE#         52
  C:050CH         LINE#         53
  C:0517H         LINE#         54
  C:051EH         LINE#         55
  C:0529H         LINE#         56
  C:0530H         LINE#         59
  C:0537H         LINE#         61
  C:053EH         LINE#         62
  C:0545H         LINE#         63
  C:054CH         LINE#         64
  C:0553H         LINE#         65
  C:055EH         LINE#         67
  C:0565H         LINE#         69
  C:0570H         LINE#         70
  C:0577H         LINE#         71
  C:057EH         LINE#         72
  -------         ENDPROC       LD_INIT_COMMON
  -------         PROC          LD_INIT_ASR
  C:0739H         LINE#         82
  C:0739H         LINE#         83
  C:0739H         LINE#         84
  C:073CH         LINE#         85
  C:0743H         LINE#         86
  C:074AH         LINE#         87
  C:0755H         LINE#         88
  C:075CH         LINE#         89
  C:0763H         LINE#         90
BL51 BANKED LINKER/LOCATER V6.22                                                      05/28/2022  22:00:09  PAGE 9


  C:076AH         LINE#         91
  C:0771H         LINE#         92
  C:0778H         LINE#         93
  C:077FH         LINE#         94
  C:0786H         LINE#         95
  C:078DH         LINE#         96
  -------         ENDPROC       LD_INIT_ASR
  -------         PROC          PROCESSINT0
  -------         DO            
  D:0008H         SYMBOL        nAsrResCount
  -------         ENDDO         
  C:0585H         LINE#         107
  C:0585H         LINE#         108
  C:0585H         LINE#         109
  C:0588H         LINE#         111
  C:058AH         LINE#         112
  C:0593H         LINE#         113
  C:059AH         LINE#         114
  C:05A1H         LINE#         115
  C:05B9H         LINE#         118
  C:05B9H         LINE#         119
  C:05C0H         LINE#         120
  C:05CEH         LINE#         121
  C:05CEH         LINE#         122
  C:05D2H         LINE#         123
  C:05D4H         LINE#         130
  C:05D4H         LINE#         131
  C:05D8H         LINE#         132
  C:05D8H         LINE#         134
  C:05DFH         LINE#         135
  C:05E6H         LINE#         137
  C:05EDH         LINE#         138
  C:05F4H         LINE#         139
  C:05FBH         LINE#         140
  C:0602H         LINE#         141
  C:0609H         LINE#         142
  C:0610H         LINE#         143
  C:0617H         LINE#         146
  C:0619H         LINE#         147
  -------         ENDPROC       PROCESSINT0
  -------         PROC          RUNASR
  -------         DO            
  D:000AH         SYMBOL        i
  D:000BH         SYMBOL        asrflag
  -------         ENDDO         
  C:0798H         LINE#         160
  C:0798H         LINE#         161
  C:0798H         LINE#         162
  C:079BH         LINE#         163
  C:079DH         LINE#         164
  C:079FH         LINE#         165
  C:079FH         LINE#         166
  C:07A2H         LINE#         167
  C:07ADH         LINE#         168
  C:07B3H         LINE#         169
  C:07B3H         LINE#         170
  C:07B3H         LINE#         171
BL51 BANKED LINKER/LOCATER V6.22                                                      05/28/2022  22:00:09  PAGE 10


  C:07B3H         LINE#         172
  C:07B5H         LINE#         173
  C:07B5H         LINE#         174
  C:07C0H         LINE#         175
  C:07C6H         LINE#         176
  C:07C6H         LINE#         177
  C:07C9H         LINE#         178
  C:07D4H         LINE#         179
  C:07D6H         LINE#         180
  C:07D6H         LINE#         181
  C:07D9H         LINE#         182
  C:07DBH         LINE#         183
  C:07E4H         LINE#         185
  C:07E6H         LINE#         186
  -------         ENDPROC       RUNASR
  -------         PROC          LD_CHECK_ASRBUSYFLAG_B2
  -------         DO            
  D:000FH         SYMBOL        j
  D:0010H         SYMBOL        flag
  -------         ENDDO         
  C:08F0H         LINE#         193
  C:08F0H         LINE#         194
  C:08F0H         LINE#         196
  C:08F3H         LINE#         197
  C:08F5H         LINE#         198
  C:08F5H         LINE#         199
  C:08FDH         LINE#         200
  C:08FDH         LINE#         201
  C:0900H         LINE#         202
  C:0902H         LINE#         203
  C:0902H         LINE#         204
  C:090DH         LINE#         205
  C:0916H         LINE#         206
  C:0918H         LINE#         207
  -------         ENDPROC       LD_CHECK_ASRBUSYFLAG_B2
  -------         PROC          LD_ASRSTART
  C:0A2BH         LINE#         214
  C:0A2BH         LINE#         215
  C:0A2BH         LINE#         216
  -------         ENDPROC       LD_ASRSTART
  -------         PROC          LD_ASRRUN
  C:061AH         LINE#         224
  C:061AH         LINE#         225
  C:061AH         LINE#         226
  C:061CH         LINE#         227
  C:0623H         LINE#         228
  C:062AH         LINE#         229
  C:0631H         LINE#         230
  C:0638H         LINE#         231
  C:0643H         LINE#         232
  C:064AH         LINE#         233
  C:0655H         LINE#         235
  C:065BH         LINE#         236
  C:065BH         LINE#         237
  C:065DH         LINE#         238
  C:065DH         LINE#         244
  C:0664H         LINE#         247
BL51 BANKED LINKER/LOCATER V6.22                                                      05/28/2022  22:00:09  PAGE 11


  C:066BH         LINE#         248
  C:0676H         LINE#         249
  C:067DH         LINE#         250
  C:0688H         LINE#         251
  C:068FH         LINE#         252
  C:069AH         LINE#         253
  C:06A1H         LINE#         255
  C:06A8H         LINE#         256
  C:06AAH         LINE#         257
  C:06ACH         LINE#         258
  -------         ENDPROC       LD_ASRRUN
  -------         PROC          LD_ASRADDFIXED
  -------         DO            
  D:000CH         SYMBOL        k
  D:000DH         SYMBOL        flag
  D:000EH         SYMBOL        nAsrAddLength
  C:0006H         SYMBOL        sRecog
  C:025EH         SYMBOL        pCode
  -------         ENDDO         
  C:044CH         LINE#         270
  C:044CH         LINE#         271
  C:044CH         LINE#         308
  C:044FH         LINE#         309
  C:0452H         LINE#         310
  C:0452H         LINE#         312
  C:0458H         LINE#         313
  C:0458H         LINE#         314
  C:045AH         LINE#         315
  C:045DH         LINE#         316
  C:045DH         LINE#         318
  C:0469H         LINE#         319
  C:0470H         LINE#         320
  C:0477H         LINE#         321
  C:0482H         LINE#         322
  C:0489H         LINE#         323
  C:0494H         LINE#         325
  C:0497H         LINE#         326
  C:0497H         LINE#         327
  C:04B7H         LINE#         328
  C:04B7H         LINE#         329
  C:04BCH         LINE#         330
  C:04C5H         LINE#         331
  C:04CCH         LINE#         332
  C:04D3H         LINE#         333
  C:04DAH         LINE#         334
  C:04E6H         LINE#         335
  C:04E8H         LINE#         336
  -------         ENDPROC       LD_ASRADDFIXED
  -------         PROC          LD_GETRESULT
  C:0A25H         LINE#         343
  C:0A25H         LINE#         344
  C:0A25H         LINE#         345
  C:0A2AH         LINE#         346
  -------         ENDPROC       LD_GETRESULT
  -------         ENDMOD        LDCHIP

  -------         MODULE        REG_RW
BL51 BANKED LINKER/LOCATER V6.22                                                      05/28/2022  22:00:09  PAGE 12


  C:0000H         SYMBOL        _ICE_DUMMY_
  D:00A0H         PUBLIC        P2
  D:00B0H         PUBLIC        P3
  D:00C0H         PUBLIC        P4
  D:00A8H         PUBLIC        IE
  C:0A1AH         PUBLIC        _LD_ReadReg
  D:00B8H         PUBLIC        IP
  C:0A0FH         PUBLIC        _LD_WriteReg
  D:00D8H         PUBLIC        CCON
  D:0098H         PUBLIC        SCON
  D:0088H         PUBLIC        TCON
  D:00D0H         PUBLIC        PSW
  -------         PROC          _LD_WRITEREG
  D:0007H         SYMBOL        address
  D:0005H         SYMBOL        dataout
  C:0A0FH         LINE#         20
  C:0A0FH         LINE#         21
  C:0A0FH         LINE#         22
  C:0A14H         LINE#         23
  C:0A19H         LINE#         24
  -------         ENDPROC       _LD_WRITEREG
  -------         PROC          _LD_READREG
  D:0007H         SYMBOL        address
  C:0A1AH         LINE#         26
  C:0A1AH         LINE#         27
  C:0A1AH         LINE#         28
  C:0A1FH         LINE#         29
  C:0A24H         LINE#         30
  -------         ENDPROC       _LD_READREG
  -------         ENDMOD        REG_RW

  -------         MODULE        USART
  C:0000H         SYMBOL        _ICE_DUMMY_
  D:00A0H         PUBLIC        P2
  D:00B0H         PUBLIC        P3
  D:00C0H         PUBLIC        P4
  B:00A8H.7       PUBLIC        EA
  D:00A8H         PUBLIC        IE
  B:00A8H.4       PUBLIC        ES
  D:00B8H         PUBLIC        IP
  B:0098H.1       PUBLIC        TI
  D:0019H         PUBLIC        baud
  D:00D8H         PUBLIC        CCON
  C:0968H         PUBLIC        _PrintCom
  D:0099H         PUBLIC        SBUF
  D:0098H         PUBLIC        SCON
  D:0089H         PUBLIC        TMOD
  D:0088H         PUBLIC        TCON
  C:0941H         PUBLIC        UartIni
  D:008DH         PUBLIC        TH1
  D:008BH         PUBLIC        TL1
  B:0088H.6       PUBLIC        TR1
  C:09DEH         PUBLIC        _UARTSendByte
  D:00D0H         PUBLIC        PSW
  -------         PROC          UARTINI
  C:0941H         LINE#         17
  C:0941H         LINE#         18
BL51 BANKED LINKER/LOCATER V6.22                                                      05/28/2022  22:00:09  PAGE 13


  C:0941H         LINE#         19
  C:0944H         LINE#         20
  C:0947H         LINE#         21
  C:0961H         LINE#         22
  C:0963H         LINE#         23
  C:0965H         LINE#         24
  C:0967H         LINE#         25
  -------         ENDPROC       UARTINI
  -------         PROC          _UARTSENDBYTE
  D:0007H         SYMBOL        DAT
  C:09DEH         LINE#         32
  C:09DEH         LINE#         33
  C:09DEH         LINE#         34
  C:09E0H         LINE#         35
  C:09E2H         LINE#         36
  C:09E4H         LINE#         37
  C:09E7H         LINE#         38
  C:09E9H         LINE#         39
  C:09EBH         LINE#         40
  -------         ENDPROC       _UARTSENDBYTE
  -------         PROC          _PRINTCOM
  D:000BH         SYMBOL        DAT
  C:0968H         LINE#         47
  C:096EH         LINE#         48
  C:096EH         LINE#         49
  C:0979H         LINE#         50
  C:0979H         LINE#         51
  C:098AH         LINE#         52
  C:098CH         LINE#         53
  -------         ENDPROC       _PRINTCOM
  -------         ENDMOD        USART

  -------         MODULE        ?C?CLDPTR
  C:0272H         PUBLIC        ?C?CLDPTR
  -------         ENDMOD        ?C?CLDPTR

  -------         MODULE        ?C?SLDIV
  C:0830H         PUBLIC        ?C?SLDIV
  -------         ENDMOD        ?C?SLDIV

  -------         MODULE        ?C?LNEG
  C:028BH         PUBLIC        ?C?LNEG
  -------         ENDMOD        ?C?LNEG

  -------         MODULE        ?C?LLDIIDATA
  C:02A2H         PUBLIC        ?C?LLDIIDATA
  C:0299H         PUBLIC        ?C?LLDIIDATA1
  C:029BH         PUBLIC        ?C?LLDIIDATA8
  -------         ENDMOD        ?C?LLDIIDATA

  -------         MODULE        ?C?CCASE
  C:02B9H         PUBLIC        ?C?CCASE
  -------         ENDMOD        ?C?CCASE

  -------         MODULE        ?C?ULDIV
  C:031BH         PUBLIC        ?C?ULDIV
  -------         ENDMOD        ?C?ULDIV
BL51 BANKED LINKER/LOCATER V6.22                                                      05/28/2022  22:00:09  PAGE 14



Program Size: data=32.0 xdata=0 code=2606
LINK/LOCATE RUN COMPLETE.  0 WARNING(S),  0 ERROR(S)
