:10091900CED2B2BBCCABC3F7B0D7A3ACD4D9CBB58D
:10092900D2BBB1E9B0C90D0A00C7EBCFC8BAF4BB55
:08093900BDB6A3B5B10D0A0023
:060A0400011C00011B00B3
:1007E700E4F5091209CC1209B11208741209418003
:1007F7002C781CE61460FA24F1601824DF60F224D8
:10080700317020781C7601120798EF70E4781C7617
:100817003180DE120A25781EEFF61203ADE4781C4C
:09082700F680CEE4781CF680C8CE
:1009CC00B2C21209ECB2C21209ECB2C21209ECB2F8
:0209DC00C22235
:1009B1007580FF7590FE5390FE75A0FF75B0FF75B1
:0B09C100C0FFC2C3D289D2A8D2AF226F
:0A09F90000007F057E49DEFEDFFCF2
:010A030022D0
:08098D008F148E138D128C11E2
:10099500E4F515F516F517F518781174FF12029B95
:0B09A500EC4D4E4F60051209F980EE8A
:0109B0002224
:0C09EC007F117ED07D1BDDFEDEFCDFFAFB
:0109F80022DC
:030003000208B53B
:1008B500C0E0C0F0C083C082C0D075D000C000C009
:1008C50001C002C003C004C005C006C007120585EB
:1008D500D007D006D005D004D003D002D001D00077
:0B08E500D0D0D082D083D0F0D0E03221
:1003AD008F0AE50A7014751B01C2C27FFF1209DEA8
:1003BD004390011209F95390FE22E51B64017075FB
:1003CD00D2C2E50A1202B903FF01040302040703B6
:1003DD00040B04040F05041306041707041B08047B
:1003ED001F09042310042711042B12042F2F0000C2
:1003FD00043A7F0180347F0280307F03802C7F049C
:10040D0080287F0580247F0680207F07801C7F0841
:10041D0080187F0980147F1080107F11800C7F124F
:10042D008008E4F51B5390FE7F2F0209DE7BFF7AD7
:0F043D0009791980067BFF7A0979321209682242
:1000060064696E672064616E67000000000000008E
:1000160000000000000000000000000000006B610E
:1000260069206D656E206C7565000000000000009B
:100036000000000000000000000000006775616E0F
:10004600206D656E20717500000000000000000044
:10005600000000000000000000006B61692064657C
:100066006E67207368656E000000000000000000E7
:1000760000000000000000006775616E2064656E78
:1000860067207775000000000000000000000000F7
:100096000000000000006368612078756E207469B6
:1000A600616E207169000000000000000000000081
:1000B60000000000736869206A69616E206A692021
:1000C6006469616E206C650000000000000000009D
:1000D600000067656E672078696E206C612062613A
:1000E60020000000000000000000000000000000EA
:1000F60077656E2064752000000000000000000097
:100106000000000000000000000000000000626126
:100116006920647520796920786961000000000013
:10012600000000000000000000000000626F206672
:10013600616E672079696E207975650000000000A0
:10014600000000000000000000007368616E672078
:1001560079692073686F75206765000000000000EC
:1001660000000000000000007869612079692073B2
:10017600686F752067650000000000000000000041
:1001860000000000000074756920786961206261D2
:100196000000000000000000000000000000000059
:1001A6000000000000000000000000000000000049
:1001B6000000000000000000000000000000000039
:1001C6000000000000000000000000000000000029
:1001D6000000000000000000000000000000000019
:1001E6000000000000000000000000000000000009
:1001F60000000000000000000000000000000000F9
:1002060000000000000000000000000000000000E8
:1002160000000000000000000000000000000000D8
:1002260000000000000000000000000000000000C8
:1002360000000000000000000000000000000000B8
:1002460000000000000000000000000000000000A8
:10025600000000000000000000010203040506077C
:0C02660008091011122F00000000000019
:10087400D2B57F057E007D007C0012098DC2B57F54
:10088400057E007D007C0012098DD2B57F057E00B7
:100894007D007C0012098DC2A17F057E007D007C55
:1008A4000012098DD2A17F057E007D007C00020923
:0108B4008DB6
:1004E9007F06120A1A7D357F17120A0F7F0A7E00CE
:1004F9007D007C0012098D7F06120A1A7D037F890F
:10050900120A0F7F057E007D007C0012098D7D4354
:100519007FCF120A0F7F057E007D007C0012098DB6
:100529007D027FCB120A0F7D0A7F11120A0FE4FDAB
:100539007F1E120A0F7D3F7F19120A0F7D487F1B0C
:10054900120A0F7D1F7F1D120A0F7F0A7E007D0090
:100559007C0012098D7D047FCD120A0F7F057E0074
:100569007D007C0012098DE4FD7FB9120A0F7D4FD1
:0C0579007FCF120A0F7DFF7F6F020A0F78
:100739001204E9E4FD7FBD120A0F7D487F17120AF2
:100749000F7F0A7E007D007C0012098D7D807F3C31
:10075900120A0F7D077F3E120A0F7DFF7F38120AAA
:100769000F7D077F3A120A0FE4FD7F40120A0F7DC1
:10077900087F42120A0FE4FD7F44120A0F7D087FA9
:0F07890046120A0F7F017E007D007C0002098D61
:10058500E4F508C2A87F2B120A1A781DA607E4FD18
:100595007F29120A0FE4FD7F02120A0F781DE6304B
:1005A500E42D7FB2120A1AEF642170237FBF120A6D
:1005B5001ABF351B7FBA120A1A8F08E508D39400B3
:1005C500400DE508D394045006781C761080047815
:1005D5001C7611E4FD7F2B120A0FE4FD7F1C120A25
:1005E5000FE4FD7F29120A0FE4FD7F02120A0FE4D2
:1005F500FD7F2B120A0FE4FD7FBA120A0FE4FD7F7F
:10060500BC120A0F7D017F08120A0FE4FD7F081254
:040615000A0FD2A84E
:0106190022BE
:10079800E4F50AF50BF50A120A2B7F327E007D007C
:1007A8007C0012098D12044CEF700280117F0A7EC2
:1007B800007D007C0012098D12061AEF70101208D5
:1007C800747F327E007D007C0012098D8005750BD8
:0E07D800018009050AE50AC3940540BBAF0B7A
:0107E60022F0
:1008F000E4F510F50F7FB2120A1ABF210575100139
:1009000080147F0A7E007D007C0012098D050FE5B2
:080910000FC3940A40DFAF1091
:0109180022BC
:030A2B0002073986
:10061A00C2A87D557F35120A0F7D097F1C120A0F69
:10062A007D207FBD120A0F7D017F08120A0F7F010C
:10063A007E007D007C0012098DE4FD7F08120A0FFE
:10064A007F017E007D007C0012098D1208F0EF7098
:10065A0002FF227D0B7F1C120A0F7DFF7FB2120A56
:10066A000F7F017E007D007C0012098D7D067F3799
:10067A00120A0F7F017E007D007C0012098D7D0623
:10068A007F37120A0F7F057E007D007C0012098DDC
:10069A007D107F29120A0FE4FD7FBD120A0FD2A82E
:0306AA007F0122AB
:10044C00750D01E4F50C1208F0EF7005F50D0204C2
:10045C00E6E50C90025E93FD7FC1120A0FE4FD7F6E
:10046C00C3120A0F7D047F08120A0F7F017E007DE4
:10047C00007C0012098DE4FD7F08120A0F7F017EBB
:10048C00007D007C0012098DE4F50E75F01EE50C64
:10049C00A42406F582E5F03400F583E582250EF5FB
:1004AC0082E43583F583E493FD600E7F05120A0F19
:1004BC00050EE50EC3941E40D2AD0E7FB9120A0F85
:1004CC007DFF7FB2120A0F7D047F37120A0F050CD5
:0C04DC00E50CC394145003020452AF0D51
:0104E80022F1
:060A25007FC5120A1A222F
:0B0A0F00908100EFF0908000EDF022DD
:0B0A1A00908100EFF0908000E0FF22D0
:040A0A000219258028
:10094100759850758920AE19AF1AAB07AA06E4F95C
:10095100F8FF7EE1FDFC12083012028B8F8B8F8D28
:07096100D28ED2ACD2AF220E
:0E09DE00C2ACC2998F993099FDC299D2AC2259
:100968008B0B8A0C890DAB0BAA0CA90D12027260B5
:1009780013050DE50D7002050C14F9120272FF1231
:0509880009DE80E222FF
:030000000206AD48
:0C06AD00787FE4F6D8FD75811E0206F48B
:10027200BB010689828A83E0225002E722BBFE028A
:09028200E32289828A83E49322BD
:10083000C2D5E830E70FB2D5E4C39BFBE49AFAE4F3
:1008400099F9E498F8EC30E717B2D512086612036C
:100850001BE4C39BFBE49AFAE499F9E498F880035B
:1008600012031B30D50DE4C39FFFE49EFEE49DFD03
:04087000E49CFC22E6
:0E028B00C3E49FFFE49EFEE49DFDE49CFC2284
:100299007401FF3395E0FEFDFC080808E6CF2FF650
:1002A90018E6CE3EF618E6CD3DF618E6CC3CF62229
:1002B900D083D082F8E4937012740193700DA3A3D4
:1002C90093F8740193F5828883E4737402936860E8
:0602D900EFA3A3A380DFE8
:1006B9000207E7E493A3F8E493A34003F68001F269
:1006C90008DFF48029E493A3F85407240CC8C33342
:1006D900C4540F4420C8834004F456800146F6DF11
:1006E900E4800B0102040810204080900A04E47E93
:1006F900019360BCA3FF543F30E509541FFEE49306
:10070900A360010ECF54C025E060A840B8E493A3CC
:10071900FAE493A3F8E493A3C8C582C8CAC583CAF7
:10072900F0A3C8C582C8CAC583CADFE9DEE780BEAF
:010A0E0000E7
:1002DF0075F008758200EF2FFFEE33FECD33CDCCD6
:1002EF0033CCC58233C5829BED9AEC99E582984059
:1002FF000CF582EE9BFEED9AFDEC99FC0FD5F0D636
:10030F00E4CEFBE4CDFAE4CCF9A88222B800C1B95F
:10031F000059BA002DEC8BF084CFCECDFCE5F0CB9D
:10032F00F97818EF2FFFEE33FEED33FDEC33FCEBD6
:10033F0033FB10D703994004EB99FB0FD8E5E4F991
:10034F00FA227818EF2FFFEE33FEED33FDEC33FC7E
:10035F00C933C910D7059BE99A4007EC9BFCE99A72
:10036F00F90FD8E0E4C9FAE4CCFB2275F010EF2FB7
:10037F00FFEE33FEED33FDCC33CCC833C810D707B7
:10038F009BEC9AE899400AED9BFDEC9AFCE899F8F2
:0E039F000FD5F0DAE4CDFBE4CCFAE4C8F92285
:00000001FF
